{
  "contractName": "Event",
  "abi": [
    {
      "constant": true,
      "inputs": [
        {
          "internalType": "uint256",
          "name": "",
          "type": "uint256"
        }
      ],
      "name": "eventIdMappings",
      "outputs": [
        {
          "internalType": "address",
          "name": "eventOrganiser",
          "type": "address"
        },
        {
          "internalType": "string",
          "name": "eventName",
          "type": "string"
        },
        {
          "internalType": "uint256",
          "name": "eventMaxCapacity",
          "type": "uint256"
        }
      ],
      "payable": false,
      "stateMutability": "view",
      "type": "function"
    },
    {
      "constant": false,
      "inputs": [
        {
          "internalType": "string",
          "name": "eventNameInput",
          "type": "string"
        },
        {
          "internalType": "uint256",
          "name": "eventMaxCapacityInput",
          "type": "uint256"
        }
      ],
      "name": "createEvent",
      "outputs": [
        {
          "internalType": "uint256",
          "name": "",
          "type": "uint256"
        }
      ],
      "payable": false,
      "stateMutability": "nonpayable",
      "type": "function"
    },
    {
      "constant": true,
      "inputs": [
        {
          "internalType": "uint256",
          "name": "eventID",
          "type": "uint256"
        },
        {
          "internalType": "address",
          "name": "organiserAddress",
          "type": "address"
        }
      ],
      "name": "checkEventOwner",
      "outputs": [
        {
          "internalType": "bool",
          "name": "",
          "type": "bool"
        }
      ],
      "payable": false,
      "stateMutability": "view",
      "type": "function"
    },
    {
      "constant": true,
      "inputs": [],
      "name": "getCurrentEventID",
      "outputs": [
        {
          "internalType": "uint256",
          "name": "",
          "type": "uint256"
        }
      ],
      "payable": false,
      "stateMutability": "view",
      "type": "function"
    }
  ],
  "bytecode": "0x6080604052600160005534801561001557600080fd5b506106d8806100256000396000f3fe608060405234801561001057600080fd5b506004361061004c5760003560e01c80632ba7003f1461005157806369d5f16b14610132578063915c9181146101985780639a4d4385146101b6575b600080fd5b61007d6004803603602081101561006757600080fd5b810190808035906020019092919050505061028f565b604051808473ffffffffffffffffffffffffffffffffffffffff1673ffffffffffffffffffffffffffffffffffffffff16815260200180602001838152602001828103825284818151815260200191508051906020019080838360005b838110156100f55780820151818401526020810190506100da565b50505050905090810190601f1680156101225780820380516001836020036101000a031916815260200191505b5094505050505060405180910390f35b61017e6004803603604081101561014857600080fd5b8101908080359060200190929190803573ffffffffffffffffffffffffffffffffffffffff169060200190929190505050610371565b604051808215151515815260200191505060405180910390f35b6101a06104d9565b6040518082815260200191505060405180910390f35b610279600480360360408110156101cc57600080fd5b81019080803590602001906401000000008111156101e957600080fd5b8201836020820111156101fb57600080fd5b8035906020019184600183028401116401000000008311171561021d57600080fd5b91908080601f016020809104026020016040519081016040528093929190818152602001838380828437600081840152601f19601f820116905080830192505050505050509192919290803590602001909291905050506104e2565b6040518082815260200191505060405180910390f35b60016020528060005260406000206000915090508060000160009054906101000a900473ffffffffffffffffffffffffffffffffffffffff1690806001018054600181600116156101000203166002900480601f0160208091040260200160405190810160405280929190818152602001828054600181600116156101000203166002900480156103615780601f1061033657610100808354040283529160200191610361565b820191906000526020600020905b81548152906001019060200180831161034457829003601f168201915b5050505050908060020154905083565b600061037b6105c7565b600160008581526020019081526020016000206040518060600160405290816000820160009054906101000a900473ffffffffffffffffffffffffffffffffffffffff1673ffffffffffffffffffffffffffffffffffffffff1673ffffffffffffffffffffffffffffffffffffffff168152602001600182018054600181600116156101000203166002900480601f0160208091040260200160405190810160405280929190818152602001828054600181600116156101000203166002900480156104885780601f1061045d57610100808354040283529160200191610488565b820191906000526020600020905b81548152906001019060200180831161046b57829003601f168201915b5050505050815260200160028201548152505090508273ffffffffffffffffffffffffffffffffffffffff16816000015173ffffffffffffffffffffffffffffffffffffffff161491505092915050565b60008054905090565b600060016104ef57600080fd5b6104f76105c7565b60405180606001604052803373ffffffffffffffffffffffffffffffffffffffff16815260200185815260200184815250905080600160008054815260200190815260200160002060008201518160000160006101000a81548173ffffffffffffffffffffffffffffffffffffffff021916908373ffffffffffffffffffffffffffffffffffffffff16021790555060208201518160010190805190602001906105a29291906105fe565b5060408201518160020155905050600160008082825401925050819055505092915050565b6040518060600160405280600073ffffffffffffffffffffffffffffffffffffffff16815260200160608152602001600081525090565b828054600181600116156101000203166002900490600052602060002090601f016020900481019282601f1061063f57805160ff191683800117855561066d565b8280016001018555821561066d579182015b8281111561066c578251825591602001919060010190610651565b5b50905061067a919061067e565b5090565b6106a091905b8082111561069c576000816000905550600101610684565b5090565b9056fea265627a7a723158200e312e6d260040470a8702ff26918b297d6dadf9ea5a1d1ba0a57cc7c292d0ad64736f6c63430005100032",
  "source": "pragma solidity ^0.5.0;\n\ncontract Event {\n    \n    // All events are issued with an event ID, in ascending order starting from 1\n    uint256 eventIdCount = 1;\n\n    // Mapping of event ID to uniqueEvent struct that contains Event information\n    mapping(uint256 => uniqueEvent) public eventIdMappings;\n\n    // Struct to store unique event information\n    struct uniqueEvent {\n        address eventOrganiser;\n        string eventName;\n        uint256 eventMaxCapacity;\n    }\n\n    // Modifier to ensure function is called by authorised organisers\n    modifier OrganisersOnly() {\n        // To work on it after Users contract completed\n        require(true);\n        _;\n    }\n    /**\n     * @dev Function where organisers can create an Event\n     * @param eventNameInput Event Name\n     * @param eventMaxCapacityInput Max Capacity for event\n     * @return Returns event ID that is created\n     */\n    function createEvent(\n        string memory eventNameInput, \n        uint256 eventMaxCapacityInput\n    ) OrganisersOnly public returns(uint256) {\n        \n        // Creates a new uniqueEvent struct\n        uniqueEvent memory newEvent = uniqueEvent(\n            msg.sender,\n            eventNameInput,\n            eventMaxCapacityInput\n        );\n\n        // Update mapping\n        eventIdMappings[eventIdCount] = newEvent;\n        eventIdCount += 1;\n    }\n\n    // Function to check if caller of function is event owner (for Ticket Contract)\n    function checkEventOwner(uint256 eventID, address organiserAddress) public view returns(bool) {\n        uniqueEvent memory eventQueried = eventIdMappings[eventID];\n        return (eventQueried.eventOrganiser == organiserAddress);\n    }\n\n    // Getter to check current Event ID Count for testing\n    function getCurrentEventID() public view returns(uint256) {\n        return eventIdCount;\n    }\n\n}",
  "sourcePath": "/Users/alvintan/Documents/GitHub/AuthenTicket/contracts/Event.sol",
  "compiler": {
    "name": "solc",
    "version": "0.5.16+commit.9c3226ce.Emscripten.clang"
  },
  "schemaVersion": "3.4.11",
  "updatedAt": "2023-02-24T20:15:15.427Z",
  "devdoc": {
    "methods": {
      "createEvent(string,uint256)": {
        "details": "Function where organisers can create an Event",
        "params": {
          "eventMaxCapacityInput": "Max Capacity for event",
          "eventNameInput": "Event Name"
        },
        "return": "Returns event ID that is created"
      }
    }
  },
  "userdoc": {
    "methods": {}
  }
}