{
  "contractName": "Ticket",
  "abi": [
    {
      "inputs": [
        {
          "internalType": "contract Event",
          "name": "eventAddress",
          "type": "address"
        }
      ],
      "payable": false,
      "stateMutability": "nonpayable",
      "type": "constructor"
    },
    {
      "anonymous": false,
      "inputs": [
        {
          "indexed": false,
          "internalType": "uint256",
          "name": "eventID",
          "type": "uint256"
        },
        {
          "indexed": false,
          "internalType": "string",
          "name": "zoneName",
          "type": "string"
        },
        {
          "indexed": false,
          "internalType": "uint256",
          "name": "zoneCapacityDecreased",
          "type": "uint256"
        },
        {
          "indexed": false,
          "internalType": "uint256",
          "name": "zoneCapacityAfter",
          "type": "uint256"
        }
      ],
      "name": "ZoneCapacityDecreased",
      "type": "event"
    },
    {
      "anonymous": false,
      "inputs": [
        {
          "indexed": false,
          "internalType": "address",
          "name": "organiser",
          "type": "address"
        },
        {
          "indexed": false,
          "internalType": "uint256",
          "name": "eventID",
          "type": "uint256"
        },
        {
          "indexed": false,
          "internalType": "string",
          "name": "zoneName",
          "type": "string"
        }
      ],
      "name": "ZoneDetailsAdded",
      "type": "event"
    },
    {
      "anonymous": false,
      "inputs": [
        {
          "indexed": false,
          "internalType": "uint256",
          "name": "eventID",
          "type": "uint256"
        },
        {
          "indexed": false,
          "internalType": "string",
          "name": "zoneName",
          "type": "string"
        },
        {
          "indexed": false,
          "internalType": "uint256",
          "name": "zoneCapacity",
          "type": "uint256"
        },
        {
          "indexed": false,
          "internalType": "uint256",
          "name": "zonePrice",
          "type": "uint256"
        },
        {
          "indexed": false,
          "internalType": "uint256",
          "name": "zonePriceCap",
          "type": "uint256"
        }
      ],
      "name": "ZoneTicketCheck",
      "type": "event"
    },
    {
      "constant": true,
      "inputs": [
        {
          "internalType": "uint256",
          "name": "",
          "type": "uint256"
        },
        {
          "internalType": "string",
          "name": "",
          "type": "string"
        }
      ],
      "name": "ticketMappings",
      "outputs": [
        {
          "internalType": "uint256",
          "name": "zoneCapacity",
          "type": "uint256"
        },
        {
          "internalType": "uint256",
          "name": "zonePrice",
          "type": "uint256"
        },
        {
          "internalType": "uint256",
          "name": "priceCap",
          "type": "uint256"
        }
      ],
      "payable": false,
      "stateMutability": "view",
      "type": "function"
    },
    {
      "constant": false,
      "inputs": [
        {
          "internalType": "uint256",
          "name": "eventID",
          "type": "uint256"
        },
        {
          "internalType": "string",
          "name": "zoneNameInput",
          "type": "string"
        },
        {
          "internalType": "uint256",
          "name": "zoneCapacityInput",
          "type": "uint256"
        },
        {
          "internalType": "uint256",
          "name": "zonePriceInput",
          "type": "uint256"
        },
        {
          "internalType": "uint256",
          "name": "priceCapInput",
          "type": "uint256"
        }
      ],
      "name": "addZoneDetails",
      "outputs": [
        {
          "internalType": "bool",
          "name": "",
          "type": "bool"
        }
      ],
      "payable": false,
      "stateMutability": "nonpayable",
      "type": "function"
    },
    {
      "constant": false,
      "inputs": [
        {
          "internalType": "uint256",
          "name": "eventID",
          "type": "uint256"
        },
        {
          "internalType": "string",
          "name": "zoneName",
          "type": "string"
        }
      ],
      "name": "getZoneDetails",
      "outputs": [],
      "payable": false,
      "stateMutability": "nonpayable",
      "type": "function"
    },
    {
      "constant": true,
      "inputs": [],
      "name": "decreaseZoneCapacity",
      "outputs": [
        {
          "internalType": "bool",
          "name": "",
          "type": "bool"
        }
      ],
      "payable": false,
      "stateMutability": "pure",
      "type": "function"
    }
  ],
  "bytecode": "0x608060405234801561001057600080fd5b506040516108d03803806108d08339818101604052602081101561003357600080fd5b8101908080519060200190929190505050806000806101000a81548173ffffffffffffffffffffffffffffffffffffffff021916908373ffffffffffffffffffffffffffffffffffffffff1602179055505061083c806100946000396000f3fe608060405234801561001057600080fd5b506004361061004c5760003560e01c806353c101ea146100515780637a2a152d146101165780639961b2d214610138578063fba628b914610233575b600080fd5b6101146004803603604081101561006757600080fd5b81019080803590602001909291908035906020019064010000000081111561008e57600080fd5b8201836020820111156100a057600080fd5b803590602001918460018302840111640100000000831117156100c257600080fd5b91908080601f016020809104026020016040519081016040528093929190818152602001838380828437600081840152601f19601f82011690508083019250505050505050919291929050505061031a565b005b61011e610494565b604051808215151515815260200191505060405180910390f35b610219600480360360a081101561014e57600080fd5b81019080803590602001909291908035906020019064010000000081111561017557600080fd5b82018360208201111561018757600080fd5b803590602001918460018302840111640100000000831117156101a957600080fd5b91908080601f016020809104026020016040519081016040528093929190818152602001838380828437600081840152601f19601f82011690508083019250505050505050919291929080359060200190929190803590602001909291908035906020019092919050505061049d565b604051808215151515815260200191505060405180910390f35b6102f66004803603604081101561024957600080fd5b81019080803590602001909291908035906020019064010000000081111561027057600080fd5b82018360208201111561028257600080fd5b803590602001918460018302840111640100000000831117156102a457600080fd5b91908080601f016020809104026020016040519081016040528093929190818152602001838380828437600081840152601f19601f820116905080830192505050505050509192919290505050610799565b60405180848152602001838152602001828152602001935050505060405180910390f35b6103226107e6565b60016000848152602001908152602001600020826040518082805190602001908083835b602083106103695780518252602082019150602081019050602083039250610346565b6001836020036101000a0380198251168184511680821785525050505050509050019150509081526020016040518091039020604051806060016040529081600082015481526020016001820154815260200160028201548152505090507f82ee94439ccc772bfb3e2e62358e945882dd0e55cfa28522d33543ccf6b44f2f83838360000151846020015185604001516040518086815260200180602001858152602001848152602001838152602001828103825286818151815260200191508051906020019080838360005b83811015610451578082015181840152602081019050610436565b50505050905090810190601f16801561047e5780820380516001836020036101000a031916815260200191505b50965050505050505060405180910390a1505050565b60006001905090565b60008060009054906101000a900473ffffffffffffffffffffffffffffffffffffffff1673ffffffffffffffffffffffffffffffffffffffff166369d5f16b87336040518363ffffffff1660e01b8152600401808381526020018273ffffffffffffffffffffffffffffffffffffffff1673ffffffffffffffffffffffffffffffffffffffff1681526020019250505060206040518083038186803b15801561054557600080fd5b505afa158015610559573d6000803e3d6000fd5b505050506040513d602081101561056f57600080fd5b81019080805190602001909291905050506105f2576040517f08c379a00000000000000000000000000000000000000000000000000000000081526004018080602001828103825260138152602001807f4e6f74206576656e74206f7267616e697365720000000000000000000000000081525060200191505060405180910390fd5b6105fa6107e6565b60405180606001604052808681526020018581526020018481525090508060016000898152602001908152602001600020876040518082805190602001908083835b6020831061065f578051825260208201915060208101905060208303925061063c565b6001836020036101000a03801982511681845116808217855250505050505090500191505090815260200160405180910390206000820151816000015560208201518160010155604082015181600201559050507fbc7ec4bdbbf1a751197585962914cfb777071a65d84cf411b203a2d4a4a7e6aa338888604051808473ffffffffffffffffffffffffffffffffffffffff1673ffffffffffffffffffffffffffffffffffffffff16815260200183815260200180602001828103825283818151815260200191508051906020019080838360005b8381101561074f578082015181840152602081019050610734565b50505050905090810190601f16801561077c5780820380516001836020036101000a031916815260200191505b5094505050505060405180910390a1600191505095945050505050565b600160205281600052604060002081805160208101820180518482526020830160208501208183528095505050505050600091509150508060000154908060010154908060020154905083565b6040518060600160405280600081526020016000815260200160008152509056fea265627a7a72315820cd116db3ff8ab8b01f9c4d3ea02b94853364ab2ae01a9a46b34a25252725f86564736f6c63430005100032",
  "source": "pragma solidity ^0.5.0;\n\nimport \"./Event.sol\";\n\ncontract Ticket {\n\n    Event eventContract;\n\n    // Constructor that takes in event address\n    constructor(Event eventAddress) public {\n        eventContract = eventAddress;\n    }\n\n    // Mapping of event ID to mapping of Zone Name to uniqueZoneTicket struct\n    mapping(uint256 => mapping(string => uniqueZoneTicket)) public ticketMappings;\n\n    // Struct to store ticket zone information\n    struct uniqueZoneTicket {\n        // To do: Add more attributes to tickets\n        uint256 zoneCapacity; // Max number of tickets in zone\n        uint256 zonePrice; // Issue price for tickets in zone\n        // uint256 ticketExpiry; // Expiry date for tickets\n        uint256 priceCap; // Max price ceiling for tickets\n    }\n\n    // Events to be emitted\n    event ZoneDetailsAdded(address organiser, uint256 eventID, string zoneName);\n    event ZoneTicketCheck(\n        uint256 eventID, \n        string zoneName, \n        uint256 zoneCapacity, \n        uint256 zonePrice, \n        uint256 zonePriceCap\n    );\n    event ZoneCapacityDecreased(\n        uint256 eventID, \n        string zoneName, \n        uint256 zoneCapacityDecreased,\n        uint256 zoneCapacityAfter\n    );\n\n    /**\n     * @dev Function for event organisers to add zone details\n     * NOTE: If zone is already present, then input will overwrite existing zone details\n     */\n    function addZoneDetails(\n        uint256 eventID,\n        string memory zoneNameInput,\n        uint256 zoneCapacityInput,\n        uint256 zonePriceInput,\n        uint256 priceCapInput\n    ) public returns(bool) {\n\n        // Check that msg.sender is event organiser\n        require(eventContract.checkEventOwner(eventID, msg.sender), \"Not event organiser\");\n\n        // Create a new uniqueZoneTicketStruct\n        uniqueZoneTicket memory newZoneTicket = uniqueZoneTicket(\n            zoneCapacityInput,\n            zonePriceInput,\n            priceCapInput\n        );\n\n        // Add zone details\n        ticketMappings[eventID][zoneNameInput] = newZoneTicket;\n\n        // Emit event\n        emit ZoneDetailsAdded(msg.sender, eventID, zoneNameInput);\n\n        return true;\n    }\n\n    // Getter function to get zone details for all users\n    function getZoneDetails(uint256 eventID, string memory zoneName) public {\n        uniqueZoneTicket memory zoneTicketQueried = ticketMappings[eventID][zoneName];\n\n        emit ZoneTicketCheck(\n            eventID,\n            zoneName, \n            zoneTicketQueried.zoneCapacity, \n            zoneTicketQueried.zonePrice, \n            zoneTicketQueried.priceCap\n        );\n    }\n\n    // Function to decrease zoneCapacity as tickets are sold (TO BE WORKED ON)\n    function decreaseZoneCapacity(\n        // uint256 eventID,\n        // string memory zoneName,\n        // uint256 zoneCapacityDecrease\n    ) public pure returns(bool) {\n\n        return true;\n        // // Emit event\n        // emit ZoneCapacityDecreased();\n    }\n\n}",
  "sourcePath": "/Users/alvintan/Documents/GitHub/AuthenTicket/contracts/Ticket.sol",
  "compiler": {
    "name": "solc",
    "version": "0.5.16+commit.9c3226ce.Emscripten.clang"
  },
  "schemaVersion": "3.4.11",
  "updatedAt": "2023-02-24T20:15:15.430Z",
  "devdoc": {
    "methods": {
      "addZoneDetails(uint256,string,uint256,uint256,uint256)": {
        "details": "Function for event organisers to add zone details NOTE: If zone is already present, then input will overwrite existing zone details"
      }
    }
  },
  "userdoc": {
    "methods": {}
  }
}