{
  "contractName": "Ticket",
  "abi": [
    {
      "inputs": [
        {
          "internalType": "contract User",
          "name": "userAddress",
          "type": "address"
        },
        {
          "internalType": "contract Event",
          "name": "eventAddress",
          "type": "address"
        }
      ],
      "payable": false,
      "stateMutability": "nonpayable",
      "type": "constructor"
    },
    {
      "anonymous": false,
      "inputs": [
        {
          "indexed": false,
          "internalType": "uint256",
          "name": "eventID",
          "type": "uint256"
        },
        {
          "indexed": false,
          "internalType": "string",
          "name": "zoneName",
          "type": "string"
        },
        {
          "indexed": false,
          "internalType": "uint256",
          "name": "zoneCapacityDecreased",
          "type": "uint256"
        },
        {
          "indexed": false,
          "internalType": "uint256",
          "name": "zoneCapacityAfter",
          "type": "uint256"
        }
      ],
      "name": "ZoneCapacityDecreased",
      "type": "event"
    },
    {
      "anonymous": false,
      "inputs": [
        {
          "indexed": false,
          "internalType": "address",
          "name": "organiser",
          "type": "address"
        },
        {
          "indexed": false,
          "internalType": "uint256",
          "name": "eventID",
          "type": "uint256"
        },
        {
          "indexed": false,
          "internalType": "string",
          "name": "zoneName",
          "type": "string"
        }
      ],
      "name": "ZoneDetailsAdded",
      "type": "event"
    },
    {
      "constant": true,
      "inputs": [
        {
          "internalType": "uint256",
          "name": "",
          "type": "uint256"
        },
        {
          "internalType": "string",
          "name": "",
          "type": "string"
        }
      ],
      "name": "ticketMappings",
      "outputs": [
        {
          "internalType": "uint256",
          "name": "zoneCapacity",
          "type": "uint256"
        },
        {
          "internalType": "uint256",
          "name": "zonePrice",
          "type": "uint256"
        },
        {
          "internalType": "uint256",
          "name": "priceCap",
          "type": "uint256"
        }
      ],
      "payable": false,
      "stateMutability": "view",
      "type": "function"
    },
    {
      "constant": false,
      "inputs": [
        {
          "internalType": "uint256",
          "name": "eventID",
          "type": "uint256"
        },
        {
          "internalType": "string",
          "name": "zoneNameInput",
          "type": "string"
        },
        {
          "internalType": "uint256",
          "name": "zoneCapacityInput",
          "type": "uint256"
        },
        {
          "internalType": "uint256",
          "name": "zonePriceInput",
          "type": "uint256"
        },
        {
          "internalType": "uint256",
          "name": "priceCapInput",
          "type": "uint256"
        }
      ],
      "name": "addZoneDetails",
      "outputs": [
        {
          "internalType": "bool",
          "name": "",
          "type": "bool"
        }
      ],
      "payable": false,
      "stateMutability": "nonpayable",
      "type": "function"
    },
    {
      "constant": true,
      "inputs": [
        {
          "internalType": "uint256",
          "name": "eventID",
          "type": "uint256"
        },
        {
          "internalType": "string",
          "name": "zoneName",
          "type": "string"
        }
      ],
      "name": "getZonePrice",
      "outputs": [
        {
          "internalType": "uint256",
          "name": "",
          "type": "uint256"
        }
      ],
      "payable": false,
      "stateMutability": "view",
      "type": "function"
    },
    {
      "constant": true,
      "inputs": [
        {
          "internalType": "uint256",
          "name": "eventID",
          "type": "uint256"
        },
        {
          "internalType": "string",
          "name": "zoneName",
          "type": "string"
        }
      ],
      "name": "getZoneCapacity",
      "outputs": [
        {
          "internalType": "uint256",
          "name": "",
          "type": "uint256"
        }
      ],
      "payable": false,
      "stateMutability": "view",
      "type": "function"
    },
    {
      "constant": true,
      "inputs": [
        {
          "internalType": "uint256",
          "name": "eventID",
          "type": "uint256"
        },
        {
          "internalType": "string",
          "name": "zoneName",
          "type": "string"
        }
      ],
      "name": "getZonePriceCap",
      "outputs": [
        {
          "internalType": "uint256",
          "name": "",
          "type": "uint256"
        }
      ],
      "payable": false,
      "stateMutability": "view",
      "type": "function"
    },
    {
      "constant": true,
      "inputs": [],
      "name": "decreaseZoneCapacity",
      "outputs": [
        {
          "internalType": "bool",
          "name": "",
          "type": "bool"
        }
      ],
      "payable": false,
      "stateMutability": "pure",
      "type": "function"
    }
  ],
  "bytecode": "0x608060405234801561001057600080fd5b50604051610bb6380380610bb68339818101604052604081101561003357600080fd5b810190808051906020019092919080519060200190929190505050816000806101000a81548173ffffffffffffffffffffffffffffffffffffffff021916908373ffffffffffffffffffffffffffffffffffffffff16021790555080600160006101000a81548173ffffffffffffffffffffffffffffffffffffffff021916908373ffffffffffffffffffffffffffffffffffffffff1602179055505050610ad6806100e06000396000f3fe608060405234801561001057600080fd5b50600436106100625760003560e01c8063148132db14610067578063402d74e1146101405780637a2a152d146102195780639961b2d21461023b578063bc1ca44914610336578063fba628b91461040f575b600080fd5b61012a6004803603604081101561007d57600080fd5b8101908080359060200190929190803590602001906401000000008111156100a457600080fd5b8201836020820111156100b657600080fd5b803590602001918460018302840111640100000000831117156100d857600080fd5b91908080601f016020809104026020016040519081016040528093929190818152602001838380828437600081840152601f19601f8201169050808301925050505050505091929192905050506104f6565b6040518082815260200191505060405180910390f35b6102036004803603604081101561015657600080fd5b81019080803590602001909291908035906020019064010000000081111561017d57600080fd5b82018360208201111561018f57600080fd5b803590602001918460018302840111640100000000831117156101b157600080fd5b91908080601f016020809104026020016040519081016040528093929190818152602001838380828437600081840152601f19601f8201169050808301925050505050505091929192905050506105b3565b6040518082815260200191505060405180910390f35b610221610670565b604051808215151515815260200191505060405180910390f35b61031c600480360360a081101561025157600080fd5b81019080803590602001909291908035906020019064010000000081111561027857600080fd5b82018360208201111561028a57600080fd5b803590602001918460018302840111640100000000831117156102ac57600080fd5b91908080601f016020809104026020016040519081016040528093929190818152602001838380828437600081840152601f19601f820116905080830192505050505050509192919290803590602001909291908035906020019092919080359060200190929190505050610679565b604051808215151515815260200191505060405180910390f35b6103f96004803603604081101561034c57600080fd5b81019080803590602001909291908035906020019064010000000081111561037357600080fd5b82018360208201111561038557600080fd5b803590602001918460018302840111640100000000831117156103a757600080fd5b91908080601f016020809104026020016040519081016040528093929190818152602001838380828437600081840152601f19601f820116905080830192505050505050509192919290505050610976565b6040518082815260200191505060405180910390f35b6104d26004803603604081101561042557600080fd5b81019080803590602001909291908035906020019064010000000081111561044c57600080fd5b82018360208201111561045e57600080fd5b8035906020019184600183028401116401000000008311171561048057600080fd5b91908080601f016020809104026020016040519081016040528093929190818152602001838380828437600081840152601f19601f820116905080830192505050505050509192919290505050610a33565b60405180848152602001838152602001828152602001935050505060405180910390f35b6000610500610a80565b60026000858152602001908152602001600020836040518082805190602001908083835b602083106105475780518252602082019150602081019050602083039250610524565b6001836020036101000a038019825116818451168082178552505050505050905001915050908152602001604051809103902060405180606001604052908160008201548152602001600182015481526020016002820154815250509050806020015191505092915050565b60006105bd610a80565b60026000858152602001908152602001600020836040518082805190602001908083835b6020831061060457805182526020820191506020810190506020830392506105e1565b6001836020036101000a038019825116818451168082178552505050505050905001915050908152602001604051809103902060405180606001604052908160008201548152602001600182015481526020016002820154815250509050806000015191505092915050565b60006001905090565b6000600160009054906101000a900473ffffffffffffffffffffffffffffffffffffffff1673ffffffffffffffffffffffffffffffffffffffff166369d5f16b87336040518363ffffffff1660e01b8152600401808381526020018273ffffffffffffffffffffffffffffffffffffffff1673ffffffffffffffffffffffffffffffffffffffff1681526020019250505060206040518083038186803b15801561072257600080fd5b505afa158015610736573d6000803e3d6000fd5b505050506040513d602081101561074c57600080fd5b81019080805190602001909291905050506107cf576040517f08c379a00000000000000000000000000000000000000000000000000000000081526004018080602001828103825260138152602001807f4e6f74206576656e74206f7267616e697365720000000000000000000000000081525060200191505060405180910390fd5b6107d7610a80565b60405180606001604052808681526020018581526020018481525090508060026000898152602001908152602001600020876040518082805190602001908083835b6020831061083c5780518252602082019150602081019050602083039250610819565b6001836020036101000a03801982511681845116808217855250505050505090500191505090815260200160405180910390206000820151816000015560208201518160010155604082015181600201559050507fbc7ec4bdbbf1a751197585962914cfb777071a65d84cf411b203a2d4a4a7e6aa338888604051808473ffffffffffffffffffffffffffffffffffffffff1673ffffffffffffffffffffffffffffffffffffffff16815260200183815260200180602001828103825283818151815260200191508051906020019080838360005b8381101561092c578082015181840152602081019050610911565b50505050905090810190601f1680156109595780820380516001836020036101000a031916815260200191505b5094505050505060405180910390a1600191505095945050505050565b6000610980610a80565b60026000858152602001908152602001600020836040518082805190602001908083835b602083106109c757805182526020820191506020810190506020830392506109a4565b6001836020036101000a038019825116818451168082178552505050505050905001915050908152602001604051809103902060405180606001604052908160008201548152602001600182015481526020016002820154815250509050806040015191505092915050565b600260205281600052604060002081805160208101820180518482526020830160208501208183528095505050505050600091509150508060000154908060010154908060020154905083565b6040518060600160405280600081526020016000815260200160008152509056fea265627a7a723158207b1a62d745f8381b073b51845438005662e110e0cd565815aaa9ab1e17b67d7664736f6c63430005100032",
  "source": "pragma solidity ^0.5.0;\n\nimport \"./User.sol\";\nimport \"./Event.sol\";\n\ncontract Ticket {\n\n    User userContract;\n    Event eventContract;\n\n    // Constructor that takes in event address\n    constructor(User userAddress, Event eventAddress) public {\n        userContract = userAddress;\n        eventContract = eventAddress;\n    }\n\n    // Mapping of event ID to mapping of Zone Name to uniqueZoneTicket struct\n    mapping(uint256 => mapping(string => uniqueZoneTicket)) public ticketMappings;\n\n    // Struct to store ticket zone information\n    struct uniqueZoneTicket {\n        // To do: Add more attributes to tickets\n        uint256 zoneCapacity; // Max number of tickets in zone\n        uint256 zonePrice; // Issue price for tickets in zone\n        // uint256 ticketExpiry; // Expiry date for tickets\n        uint256 priceCap; // Max price ceiling for tickets\n    }\n\n    // Events to be emitted\n    event ZoneDetailsAdded(address organiser, uint256 eventID, string zoneName);\n    event ZoneCapacityDecreased(\n        uint256 eventID, \n        string zoneName, \n        uint256 zoneCapacityDecreased,\n        uint256 zoneCapacityAfter\n    );\n\n    /**\n     * @dev Function for event organisers to add zone details\n     * NOTE: If zone is already present, then input will overwrite existing zone details\n     */\n    function addZoneDetails(\n        uint256 eventID,\n        string memory zoneNameInput,\n        uint256 zoneCapacityInput,\n        uint256 zonePriceInput,\n        uint256 priceCapInput\n    ) public returns(bool) {\n\n        // Check that msg.sender is event organiser\n        require(eventContract.checkEventOwner(eventID, msg.sender), \"Not event organiser\");\n\n        // Create a new uniqueZoneTicketStruct\n        uniqueZoneTicket memory newZoneTicket = uniqueZoneTicket(\n            zoneCapacityInput,\n            zonePriceInput,\n            priceCapInput\n        );\n\n        // Add zone details\n        ticketMappings[eventID][zoneNameInput] = newZoneTicket;\n\n        // Emit event\n        emit ZoneDetailsAdded(msg.sender, eventID, zoneNameInput);\n\n        return true;\n    }\n\n    // Getter function to get zone price\n    function getZonePrice(uint256 eventID, string memory zoneName) public view returns(uint256) {\n        uniqueZoneTicket memory zoneTicketQueried = ticketMappings[eventID][zoneName];\n        return zoneTicketQueried.zonePrice;\n    }\n\n    // Getter function to get zone capacity\n    function getZoneCapacity(uint256 eventID, string memory zoneName) public view returns(uint256) {\n        uniqueZoneTicket memory zoneTicketQueried = ticketMappings[eventID][zoneName];\n        return zoneTicketQueried.zoneCapacity;\n    }\n\n    // Getter function to get zone price cap\n    function getZonePriceCap(uint256 eventID, string memory zoneName) public view returns(uint256) {\n        uniqueZoneTicket memory zoneTicketQueried = ticketMappings[eventID][zoneName];\n        return zoneTicketQueried.priceCap;\n    }\n\n    // Function to decrease zoneCapacity as tickets are sold (TO BE WORKED ON)\n    function decreaseZoneCapacity(\n        // uint256 eventID,\n        // string memory zoneName,\n        // uint256 zoneCapacityDecrease\n    ) public pure returns(bool) {\n\n        return true;\n        // // Emit event\n        // emit ZoneCapacityDecreased();\n    }\n\n}",
  "sourcePath": "/Users/alvintan/Documents/GitHub/AuthenTicket/contracts/Ticket.sol",
  "compiler": {
    "name": "solc",
    "version": "0.5.16+commit.9c3226ce.Emscripten.clang"
  },
  "schemaVersion": "3.4.11",
  "updatedAt": "2023-02-25T06:23:44.032Z",
  "networkType": "ethereum",
  "devdoc": {
    "methods": {
      "addZoneDetails(uint256,string,uint256,uint256,uint256)": {
        "details": "Function for event organisers to add zone details NOTE: If zone is already present, then input will overwrite existing zone details"
      }
    }
  },
  "userdoc": {
    "methods": {}
  }
}