{
  "contractName": "User",
  "abi": [
    {
      "inputs": [],
      "payable": false,
      "stateMutability": "nonpayable",
      "type": "constructor"
    },
    {
      "anonymous": false,
      "inputs": [
        {
          "indexed": false,
          "internalType": "address",
          "name": "senderAddress",
          "type": "address"
        },
        {
          "indexed": false,
          "internalType": "address",
          "name": "AdminRecipientAddress",
          "type": "address"
        }
      ],
      "name": "SetAdmin",
      "type": "event"
    },
    {
      "anonymous": false,
      "inputs": [
        {
          "indexed": false,
          "internalType": "address",
          "name": "senderAddress",
          "type": "address"
        },
        {
          "indexed": false,
          "internalType": "address",
          "name": "OrganiserRecipientAddress",
          "type": "address"
        }
      ],
      "name": "SetOrganiser",
      "type": "event"
    },
    {
      "constant": true,
      "inputs": [
        {
          "internalType": "address",
          "name": "",
          "type": "address"
        }
      ],
      "name": "userTypeMapping",
      "outputs": [
        {
          "internalType": "enum User.userType",
          "name": "",
          "type": "uint8"
        }
      ],
      "payable": false,
      "stateMutability": "view",
      "type": "function"
    },
    {
      "constant": false,
      "inputs": [
        {
          "internalType": "address",
          "name": "addressInput",
          "type": "address"
        }
      ],
      "name": "setAdmin",
      "outputs": [
        {
          "internalType": "bool",
          "name": "",
          "type": "bool"
        }
      ],
      "payable": false,
      "stateMutability": "nonpayable",
      "type": "function"
    },
    {
      "constant": false,
      "inputs": [
        {
          "internalType": "address",
          "name": "addressInput",
          "type": "address"
        }
      ],
      "name": "setOrganiser",
      "outputs": [
        {
          "internalType": "bool",
          "name": "",
          "type": "bool"
        }
      ],
      "payable": false,
      "stateMutability": "nonpayable",
      "type": "function"
    },
    {
      "constant": true,
      "inputs": [
        {
          "internalType": "address",
          "name": "addressInput",
          "type": "address"
        }
      ],
      "name": "checkAdmin",
      "outputs": [
        {
          "internalType": "bool",
          "name": "",
          "type": "bool"
        }
      ],
      "payable": false,
      "stateMutability": "view",
      "type": "function"
    },
    {
      "constant": true,
      "inputs": [
        {
          "internalType": "address",
          "name": "addressInput",
          "type": "address"
        }
      ],
      "name": "checkOrganiser",
      "outputs": [
        {
          "internalType": "bool",
          "name": "",
          "type": "bool"
        }
      ],
      "payable": false,
      "stateMutability": "view",
      "type": "function"
    },
    {
      "constant": true,
      "inputs": [
        {
          "internalType": "address",
          "name": "addressInput",
          "type": "address"
        }
      ],
      "name": "checkUser",
      "outputs": [
        {
          "internalType": "bool",
          "name": "",
          "type": "bool"
        }
      ],
      "payable": false,
      "stateMutability": "view",
      "type": "function"
    }
  ],
  "bytecode": "0x608060405234801561001057600080fd5b50336000806101000a81548173ffffffffffffffffffffffffffffffffffffffff021916908373ffffffffffffffffffffffffffffffffffffffff16021790555060018060003373ffffffffffffffffffffffffffffffffffffffff1673ffffffffffffffffffffffffffffffffffffffff16815260200190815260200160002060006101000a81548160ff021916908360028111156100ac57fe5b0217905550610706806100c06000396000f3fe608060405234801561001057600080fd5b50600436106100625760003560e01c80631e9d48cf14610067578063704b6c02146100c35780638c4b0e7e1461011f5780639026dee81461017b5780639e041a89146101d75780639e3d53ec14610233575b600080fd5b6100a96004803603602081101561007d57600080fd5b81019080803573ffffffffffffffffffffffffffffffffffffffff169060200190929190505050610299565b604051808215151515815260200191505060405180910390f35b610105600480360360208110156100d957600080fd5b81019080803573ffffffffffffffffffffffffffffffffffffffff169060200190929190505050610307565b604051808215151515815260200191505060405180910390f35b6101616004803603602081101561013557600080fd5b81019080803573ffffffffffffffffffffffffffffffffffffffff169060200190929190505050610462565b604051808215151515815260200191505060405180910390f35b6101bd6004803603602081101561019157600080fd5b81019080803573ffffffffffffffffffffffffffffffffffffffff1690602001909291905050506105d4565b604051808215151515815260200191505060405180910390f35b610219600480360360208110156101ed57600080fd5b81019080803573ffffffffffffffffffffffffffffffffffffffff169060200190929190505050610643565b604051808215151515815260200191505060405180910390f35b6102756004803603602081101561024957600080fd5b81019080803573ffffffffffffffffffffffffffffffffffffffff1690602001909291905050506106b1565b6040518082600281111561028557fe5b60ff16815260200191505060405180910390f35b60008060028111156102a757fe5b600160008473ffffffffffffffffffffffffffffffffffffffff1673ffffffffffffffffffffffffffffffffffffffff16815260200190815260200160002060009054906101000a900460ff1660028111156102ff57fe5b149050919050565b60008060009054906101000a900473ffffffffffffffffffffffffffffffffffffffff1673ffffffffffffffffffffffffffffffffffffffff163373ffffffffffffffffffffffffffffffffffffffff161461036257600080fd5b60018060008473ffffffffffffffffffffffffffffffffffffffff1673ffffffffffffffffffffffffffffffffffffffff16815260200190815260200160002060006101000a81548160ff021916908360028111156103bd57fe5b02179055507f848ac24ab84501710d6631faab117b66b79aba7ec6f7778cf3bcff428c1a4efc3383604051808373ffffffffffffffffffffffffffffffffffffffff1673ffffffffffffffffffffffffffffffffffffffff1681526020018273ffffffffffffffffffffffffffffffffffffffff1673ffffffffffffffffffffffffffffffffffffffff1681526020019250505060405180910390a160019050919050565b60006001600281111561047157fe5b600160003373ffffffffffffffffffffffffffffffffffffffff1673ffffffffffffffffffffffffffffffffffffffff16815260200190815260200160002060009054906101000a900460ff1660028111156104c957fe5b146104d357600080fd5b6002600160008473ffffffffffffffffffffffffffffffffffffffff1673ffffffffffffffffffffffffffffffffffffffff16815260200190815260200160002060006101000a81548160ff0219169083600281111561052f57fe5b02179055507fe646afba46ad2c23dd681e6a3c0f1ae6c809429ef10402380b97c5e6efc236f03383604051808373ffffffffffffffffffffffffffffffffffffffff1673ffffffffffffffffffffffffffffffffffffffff1681526020018273ffffffffffffffffffffffffffffffffffffffff1673ffffffffffffffffffffffffffffffffffffffff1681526020019250505060405180910390a160019050919050565b6000600160028111156105e357fe5b600160008473ffffffffffffffffffffffffffffffffffffffff1673ffffffffffffffffffffffffffffffffffffffff16815260200190815260200160002060009054906101000a900460ff16600281111561063b57fe5b149050919050565b600060028081111561065157fe5b600160008473ffffffffffffffffffffffffffffffffffffffff1673ffffffffffffffffffffffffffffffffffffffff16815260200190815260200160002060009054906101000a900460ff1660028111156106a957fe5b149050919050565b60016020528060005260406000206000915054906101000a900460ff168156fea265627a7a723158203594f7fb83cfa965b0e4bc755d6dc9d07e55cac81f4c7d295c344db86696317964736f6c63430005100032",
  "source": "pragma solidity ^0.5.0;\n\ncontract User {\n\n    address contractMaster;\n\n    // Enum of user types\n    enum userType { user, admin, organiser } // Default value of eum in mapping = user\n\n    // Mapping of address to user type\n    mapping(address => userType) public userTypeMapping;\n\n    // Events to be emitted\n    event SetOrganiser(address senderAddress, address OrganiserRecipientAddress);\n    event SetAdmin(address senderAddress, address AdminRecipientAddress);\n\n\n    // Constructor which only allows address deploying contract to be master\n    constructor() public {\n        contractMaster = msg.sender;\n        userTypeMapping[msg.sender] = userType.admin;\n    }\n\n    // Modifier which only allows admin to use functions\n    modifier adminOnly() {\n        require(userTypeMapping[msg.sender] == userType.admin);\n        _;\n    }\n\n    // Modifier which only allows contract master to use functions\n    modifier masterOnly() {\n        require(msg.sender == contractMaster);\n        _;\n    }\n\n    // Modifier which only allows organisers to use functions\n    modifier organiserOnly() {\n        require(userTypeMapping[msg.sender] == userType.organiser);\n        _;\n    }\n\n    // Setter function to set admin\n    function setAdmin(address addressInput) public masterOnly returns (bool) {\n        userTypeMapping[addressInput] = userType.admin;\n        emit SetAdmin(msg.sender, addressInput);\n        return true;\n    }\n\n    // Setter Function to set organiser\n    function setOrganiser(address addressInput) public adminOnly returns (bool) {\n        userTypeMapping[addressInput] = userType.organiser;\n        emit SetOrganiser(msg.sender, addressInput);\n        return true;\n    }\n\n    // Getter function to check if person is admin\n    function checkAdmin(address addressInput) public view returns (bool) {\n        return (userTypeMapping[addressInput] == userType.admin);\n    }\n\n    // Getter function to check if person is organiser\n    function checkOrganiser(address addressInput) public view returns (bool) {\n        return (userTypeMapping[addressInput] == userType.organiser);\n    }\n\n    // Getter function to check if person is user\n    function checkUser(address addressInput) public view returns (bool) {\n        return (userTypeMapping[addressInput] == userType.user);\n    }\n    \n}",
  "sourcePath": "/Users/alvintan/Documents/GitHub/AuthenTicket/contracts/User.sol",
  "compiler": {
    "name": "solc",
    "version": "0.5.16+commit.9c3226ce.Emscripten.clang"
  },
  "schemaVersion": "3.4.11",
  "updatedAt": "2023-02-25T06:23:44.028Z",
  "networkType": "ethereum",
  "devdoc": {
    "methods": {}
  },
  "userdoc": {
    "methods": {}
  }
}